:020000040800F2
:1000000000000220AD080008150800081D080008BF
:10001000250800082D080008350800080000000029
:100020000000000000000000000000003D08000883
:100030004B08000800000000590800086708000885
:10004000FD080008FD080008FD080008FD0800087C
:10005000FD080008FD080008FD080008FD0800086C
:10006000FD080008FD080008FD080008FD0800085C
:10007000FD080008FD080008FD080008FD0800084C
:10008000FD080008FD080008FD080008FD0800083C
:10009000FD080008FD080008FD080008FD0800082C
:1000A000FD080008FD080008FD080008FD0800081C
:1000B00075080008FD080008FD080008FD08000894
:1000C000FD080008FD080008FD080008FD080008FC
:1000D000FD080008FD080008FD080008FD080008EC
:1000E000FD080008FD080008FD080008FD080008DC
:1000F000FD080008FD080008FD080008FD080008CC
:10010000FD080008FD080008FD080008FD080008BB
:10011000FD080008FD080008FD080008FD080008AB
:10012000FD080008FD080008FD080008FD0800089B
:10013000FD0800080000000000000000FD080008A5
:10014000FD080008FD080008FD080008FD0800087B
:10015000FD080008FD080008FD080008FD0800086B
:10016000FD080008FD080008FD080008FD0800085B
:10017000FD080008FD080008FD0800080000000058
:1001800000000000FD080008000000000000000062
:10019000FD0800080000000000000000FD08000845
:1001A000000000000000000000000000FD08000842
:1001B000FD080008FD080008FD080008FD0800080B
:0401C000FD0800082E
:1001C40010B5054C237833B9044B13B10448AFF38D
:1001D40000800123237010BD0C00002000000000EB
:1001E4003824000808B5034B1BB103490348AFF397
:1001F400008008BD00000000100000203824000822
:1002040053B94AB9002908BF00281CBF4FF0FF3179
:100214004FF0FF3000F088B9ADF1080C6DE904CE61
:1002240000F006F8DDF804E0DDE9022304B07047CD
:100234002DE9F047089D8E4604468846002B4AD196
:100244008A42174662D9B2FA82F64EB1C6F1200349
:1002540001FA06F820FA03F3B74043EA0808B44069
:100264004FEA174E1FFA87FCB8FBFEF1230C0EFB76
:10027400118843EA084301FB0CF29A4209D9FB189E
:1002840001F1FF3080F0EA809A4240F2E7800239BF
:100294003B449A1AA3B2B2FBFEF00EFB102243EACF
:1002A400024300FB0CFC9C4509D9FB1800F1FF320A
:1002B40080F0D6809C4540F2D3803B44023840EA2B
:1002C4000140A3EB0C0300211DB1F3400022C5E95A
:1002D4000032BDE8F0878B4205D90DB1C5E90001B4
:1002E40000210846F5E7B3FA83F1002946D17345A6
:1002F40002D3824200F20581841A6EEB03020120CC
:100304009046002DE5D0C5E90048E2E7002A00F058
:100314009080B2FA82F6002E40F0A4808A1A030C70
:100324004FEA174E80B2BCB20121B2FBFEFC0EFBB9
:100334001C2243EA024304FB0CF29A4207D9FB183D
:100344000CF1FF3802D29A4200F2E080C4469B1AB4
:10035400B3FBFEF20EFB123340EA034302FB04F448
:100364009C4207D9FB1802F1FF3002D29C4200F2F2
:10037400CA8002461B1B42EA0C40A5E7C1F12006D5
:100384008B4022FA06F71F430EFA01F420FA06F313
:100394002EFA06FE4FEA1749234300FA01F81FFA22
:1003A40087FCBEFBF9F01C0C09FB10EE44EA0E447A
:1003B40000FB0CFEA64502FA01F209D93C1900F132
:1003C400FF3A80F09C80A64540F2998002383C4474
:1003D400A4EB0E041FFA83FEB4FBF9F309FB1344E8
:1003E4004EEA044403FB0CFCA44508D93C1903F170
:1003F400FF3E80F08280A4457FD9023B3C4443EA1F
:100404000040A4EB0C04A0FB02EC64457346E146F7
:1004140062D35FD05DB1B8EB030264EB090404FA64
:1004240006F622FA01F31E43CC40C5E9006400211C
:100434004FE7B1FBF2FC010C41EA0E4180B240EA05
:1004440001423B4638463C46B846BE462026B1FBF0
:10045400F7F1A2EB080241EA0C4166E7014618E70E
:1004640010462CE7C6F120022EFA02F3B740B14041
:1004740020FA02F24FEA174E0A43B3FBFEF8BCB26D
:100484000EFB1833110C41EA034108FB04F9B04098
:1004940089454FEA104380B23ED9791808F1FF3CF0
:1004A40001D289451FD8A1EB0901B1FBFEF909FB73
:1004B40004F80EFB191192B242EA0142424529D2D4
:1004C400BA1809F1FF31C4D24245C2D2A9F10201DE
:1004D4003A44BEE7F0459DD2BEEB02036CEB070C39
:1004E4000138E14696E7A7EB09094944A8F1020C53
:1004F400B1FBFEF909FB04F8DBE773467FE75046DE
:1005040066E70846FDE63B44023A33E7ACF1020CE9
:100514003B441CE749469CE7A1EB0901C446B1FBF7
:10052400FEF909FB04F8C4E7704700BF80B582B048
:1005340000AF78608021034800F011FD00BF083748
:10054400BD4680BD0004024080B500AF00F0D6F97E
:1005540000F00CF800F0C6F800F076F8024801F05C
:100564001DFB00BFFDE700BF2800002080B594B04C
:1005740000AF07F11C0334220021184601F02EFFBE
:1005840007F1080300221A605A609A60DA601A615F
:1005940000237B602A4B1B6C294A43F0805313646D
:1005A400274B1B6C03F080537B607B6800233B600C
:1005B400244B1B6823F44043224A43F480431360D2
:1005C400204B1B6803F440433B603B680223FB6100
:1005D4000123BB621023FB6202237B630023BB6302
:1005E4000823FB6364233B6402237B640723BB640B
:1005F4000223FB6407F11C03184600F0E1FF0346E5
:10060400002B01D000F0B0F80F23BB600223FB6085
:1006140000233B614FF4A0537B614FF48053BB61D3
:1006240007F108030321184600F0B4FC0346002B2D
:1006340001D000F099F800BF5037BD4680BD00BF1F
:10064400003802400070004080B586B000AF07F16A
:10065400080300221A605A609A60DA603B4600225E
:100664001A605A601E4B4FF080421A601C4B4CF2C9
:100674004F325A601A4B00229A60194B4FF4FA72A7
:10068400DA60174B00221A61154B00229A61144854
:1006940001F034FA0346002B01D000F065F84FF462
:1006A4008053BB6007F1080319460D4801F0D6FBDF
:1006B4000346002B01D000F057F800233B600023D1
:1006C4007B603B461946064801F0F8FD0346002BC3
:1006D40001D000F049F800BF1837BD4680BD00BF07
:1006E4002800002080B588B000AF07F10C03002279
:1006F4001A605A609A60DA601A610023BB60184B72
:100704001B6B174A43F080031363154B1B6B03F0F9
:100714008003BB60BB6800237B60114B1B6B104ADA
:1007240043F0020313630E4B1B6B03F002037B6065
:100734007B68002280210B4800F0F8FB8023FB60DB
:1007440001233B6100237B610023BB6107F10C03A0
:100754001946044800F056FA00BF2037BD4680BD54
:10076400003802400004024080B400AF72B600BFFB
:1007740000BFFDE780B483B000AF00237B60104B63
:100784005B6C0F4A43F4804353640D4B5B6C03F47E
:1007940080437B607B6800233B60094B1B6C084AE9
:1007A40043F080531364064B1B6C03F080533B608F
:1007B4003B6800BF0C37BD465DF8047B704700BF43
:1007C4000038024080B584B000AF78607B681B6855
:1007D400B3F1804F15D10023FB600C4B1B6C0B4A0B
:1007E40043F001031364094B1B6C03F00103FB602A
:1007F400FB68002200211C2000F0CDF91C2000F031
:10080400E6F900BF1037BD4680BD00BF0038024086
:1008140080B400AF00BFFDE780B400AF00BFFDE7C8
:1008240080B400AF00BFFDE780B400AF00BFFDE7B8
:1008340080B400AF00BFFDE780B400AF00BFBD4689
:100844005DF8047B704780B400AF00BFBD465DF81F
:10085400047B704780B400AF00BFBD465DF8047BE5
:10086400704780B500AF00F09BF800BF80BD00006A
:1008740080B500AF024801F001FA00BF80BD00BF9F
:100884002800002080B400AF064BD3F88830054A16
:1008940043F47003C2F8883000BFBD465DF8047BA2
:1008A400704700BF00ED00E0DFF834D0FFF7EAFF47
:1008B4000C480D490D4A002302E0D458C4500433B7
:1008C400C4188C42F9D30A4A0A4C002301E013608D
:1008D4000432A242FBD301F089FDFFF735FE7047D5
:1008E40000000220000000200C00002070240008FA
:1008F4000C00002074000020FEE7000080B500AF6B
:100904000E4B1B680D4A43F4007313600B4B1B68BA
:100914000A4A43F480631360084B1B68074A43F494
:1009240080731360032000F02BF9002000F008F816
:10093400FFF720FF0023184680BD00BF003C0240A3
:1009440080B582B000AF7860124B1A68124B1B78E6
:1009540019464FF47A73B3FBF1F3B2FBF3F3184681
:1009640000F043F90346002B01D001230EE07B681D
:100974000F2B0AD8002279684FF0FF3000F00BF9F2
:10098400064A7B681360002300E0012318460837F9
:10099400BD4680BD000000200800002004000020A7
:1009A40080B400AF064B1B781A46064B1B681344F1
:1009B400044A136000BFBD465DF8047B704700BF66
:1009C400080000207000002080B400AF034B1B68B7
:1009D4001846BD465DF8047B704700BF70000020D8
:1009E40080B485B000AF78607B6803F00703FB60D8
:1009F4000C4BDB68BB60BA684FF6FF031340BB6067
:100A0400FB681A02BB68134343F0BF6343F400332B
:100A1400BB60044ABB68D36000BF1437BD465DF8B1
:100A2400047B704700ED00E080B400AF044BDB684A
:100A34001B0A03F007031846BD465DF8047B7047A4
:100A440000ED00E080B483B000AF0346FB7197F97A
:100A54000730002B0BDBFB7903F01F02074997F9E2
:100A640007305B09012000FA02F241F8232000BF9D
:100A74000C37BD465DF8047B704700BF00E100E021
:100A840080B483B000AF03463960FB7197F9073037
:100A9400002B0ADB3B68DAB20C4997F907301201E4
:100AA400D2B20B4483F800230AE03B68DAB2084967
:100AB400FB7903F00F03043B1201D2B20B441A7604
:100AC40000BF0C37BD465DF8047B704700E100E0D1
:100AD40000ED00E080B489B000AFF860B9607A60DE
:100AE400FB6803F00703FB61FB69C3F10703042BF5
:100AF40028BF0423BB61FB690433062B02D9FB69BD
:100B0400033B00E000237B614FF0FF32BB6902FA34
:100B140003F3DA43BB681A407B699A404FF0FF3114
:100B24007B6901FA03F3D9437B680B4013431846EE
:100B34002437BD465DF8047B7047000080B582B061
:100B440000AF78607B68013BB3F1807F01D3012360
:100B54000FE00A4A7B68013B53600F214FF0FF30DE
:100B6400FFF78EFF054B00229A60044B07221A60A0
:100B7400002318460837BD4680BD00BF10E000E0E2
:100B840080B582B000AF78607868FFF729FF00BFB6
:100B94000837BD4680BD80B586B000AF0346B96056
:100BA4007A60FB7300237B61FFF73EFF78617A680C
:100BB400B9687869FFF78EFF024697F90F3011463E
:100BC4001846FFF75DFF00BF1837BD4680BD80B5EE
:100BD40082B000AF0346FB7197F907301846FFF760
:100BE40031FF00BF0837BD4680BD80B582B000AF7D
:100BF40078607868FFF7A2FF034618460837BD46B9
:100C040080BD000080B489B000AF786039600023F3
:100C14007B6100233B610023BB610023FB6165E131
:100C24000122FB6902FA03F37B613B681B687A6962
:100C340013403B613A697B699A4240F054813B68B6
:100C44005B6803F00303012B05D03B685B6803F08A
:100C54000303022B30D17B689B68BB61FB695B009B
:100C6400032202FA03F3DB43BA691340BB613B6816
:100C7400DA68FB695B0002FA03F3BA691343BB61E8
:100C84007B68BA699A607B685B68BB610122FB6917
:100C940002FA03F3DB43BA691340BB613B685B6848
:100CA4001B0903F00102FB6902FA03F3BA69134357
:100CB400BB617B68BA695A603B685B6803F00303F5
:100CC400032B17D07B68DB68BB61FB695B000322E5
:100CD40002FA03F3DB43BA691340BB613B689A68C9
:100CE400FB695B0002FA03F3BA691343BB617B68D7
:100CF400BA69DA603B685B6803F00303022B23D113
:100D0400FB69DA087B68083253F82230BB61FB695F
:100D140003F007039B000F2202FA03F3DB43BA69D3
:100D24001340BB613B681A69FB6903F007039B002E
:100D340002FA03F3BA691343BB61FB69DA087B68FF
:100D44000832B96943F822107B681B68BB61FB69F0
:100D54005B00032202FA03F3DB43BA691340BB616D
:100D64003B685B6803F00302FB695B0002FA03F370
:100D7400BA691343BB617B68BA691A603B685B68F4
:100D840003F44033002B00F0AE800023FB605D4B86
:100D94005B6C5C4A43F4804353645A4B5B6C03F4CE
:100DA4008043FB60FB68584AFB699B08023352F896
:100DB4002330BB61FB6903F003039B000F2202FA9B
:100DC40003F3DB43BA691340BB617B684F4A934228
:100DD40025D07B684E4A93421FD07B684D4A93428C
:100DE40019D07B684C4A934213D07B684B4A934298
:100DF4000DD07B684A4A934207D07B68494A9342A4
:100E040001D106230CE007230AE0052308E00423AC
:100E140006E0032304E0022302E0012300E00023B0
:100E2400FA6902F0030292009340BA691343BB616A
:100E34003549FB699B080233BA6941F823203A4BD0
:100E44009B68BB613B69DB43BA691340BB613B6888
:100E54005B6803F48013002B03D0BA693B69134326
:100E6400BB61314ABB6993602F4BDB68BB613B6953
:100E7400DB43BA691340BB613B685B6803F400134E
:100E8400002B03D0BA693B691343BB61264ABB6993
:100E9400D360254B5B68BB613B69DB43BA69134094
:100EA400BB613B685B6803F40033002B03D0BA6971
:100EB4003B691343BB611C4ABB6953601A4B1B68F3
:100EC400BB613B69DB43BA691340BB613B685B6848
:100ED40003F48033002B03D0BA693B691343BB612D
:100EE400114ABB691360FB690133FB61FB690F2B7A
:100EF4007FF696AE00BF00BF2437BD465DF8047B85
:100F0400704700BF00380240003801400000024032
:100F14000004024000080240000C0240001002409D
:100F24000014024000180240003C014080B483B029
:100F340000AF78600B467B8013467B707B78002B78
:100F440003D07A887B689A6103E07B881A047B6803
:100F54009A6100BF0C37BD465DF8047B704780B4CE
:100F640085B000AF78600B467B807B685B69FB6073
:100F74007A88FB6813401A04FB68D9437B880B40CA
:100F84001A437B689A6100BF1437BD465DF8047B41
:100F94007047000080B584B000AF786039607B682A
:100FA400002B01D10123CCE0684B1B6803F00F0335
:100FB4003A689A420CD9654B3A68D2B21A70634BBC
:100FC4001B6803F00F033A689A4201D00123B8E08A
:100FD4007B681B6803F00203002B20D07B681B682E
:100FE40003F00403002B05D0594B9B68584A43F483
:100FF400E05393607B681B6803F00803002B05D063
:10100400534B9B68524A43F460439360504B9B6834
:1010140023F0F0027B689B684D4913438B607B6827
:101024001B6803F00103002B44D07B685B68012B31
:1010340007D1474B1B6803F40033002B19D101235C
:101044007FE07B685B68022B03D07B685B68032BC3
:1010540007D13F4B1B6803F00073002B09D1012318
:101064006FE03B4B1B6803F00203002B01D101230B
:1010740067E0374B9B6823F003027B685B68344965
:1010840013438B60FFF7A0FCF8600AE0FFF79CFCB9
:101094000246FB68D31A41F28832934201D90323F2
:1010A4004FE02B4B9B6803F00C027B685B689B0052
:1010B4009A42EBD1254B1B6803F00F033A689A421E
:1010C4000CD2224B3A68D2B21A70204B1B6803F040
:1010D4000F033A689A4201D0012332E07B681B680F
:1010E40003F00403002B08D0194B9B6823F4E0524F
:1010F4007B68DB68164913438B607B681B6803F0CD
:101104000803002B09D0124B9B6823F460427B68D0
:101114001B69DB000E4913438B6000F021F8024683
:101124000B4B9B681B0903F00F030A49CB5C22FAA3
:1011340003F3094A1360094B1B681846FFF700FCC8
:10114400002318461037BD4680BD00BF003C024056
:101154000038024050240008000000200400002051
:101164002DE9B04FAEB000AF0023C7F8AC30002378
:10117400C7F8B4300023C7F8A8300023C7F8A43058
:101184000023C7F8B030CB4B9B6803F00C030C2B47
:1011940000F2068201A252F823F000BFD511000824
:1011A400A5150008A5150008A5150008DD110008FF
:1011B400A5150008A5150008A5150008E5110008E7
:1011C400A5150008A5150008A5150008D5130008E5
:1011D400B94BC7F8B030E7E1B84BC7F8B030E3E13A
:1011E400B44B5B6803F03F03C7F8AC30B14B5B68AA
:1011F40003F48003002B71D0AE4B5B689B09002283
:10120400C7F89830C7F89C20D7F89830C3F3080380
:10121400C7F890300023C7F89430D7E92445224614
:101224002B464FF000004FF00001590141EAD26112
:10123400500102460B462146511A3964294663EB94
:1012440001037B644FF000024FF00003D7E91089DB
:1012540049468B01414643EA916341468A0141462E
:10126400511AB963494663EB0103FB634FF0000273
:101274004FF00003D7E90E894946CB00414643EAC3
:1012840051734146CA0010461946034622469B182C
:101294003B632B460A4642EB03037B634FF0000299
:1012A4004FF00003D7E90C4529464B02214643EA97
:1012B400D15321464A0210461946D7F8AC300022D1
:1012C400C7F88830C7F88C20D7E92223FEF798FFA7
:1012D40002460B461346C7F8B43067E0754B5B68AB
:1012E4009B090022C7F88030C7F88420D7F88030E3
:1012F400C3F30803BB670023FB67D7E91E452246F7
:101304002B464FF000004FF00001590141EAD26131
:10131400500102460B462146511AB962294663EB35
:101324000103FB624FF000024FF00003D7E90A8982
:1013340049468B01414643EA916341468A0141464D
:10134400B2EB010A494663EB010B4FF000024FF088
:1013540000034FEACB0343EA5A734FEACA029246A8
:101364009B4623461AEB03033B622B464BEB0303DA
:101374007B624FF000024FF00003D7E9084529468D
:101384008B02214643EA915321468A0210461946AC
:10139400D7F8AC3000223B677A67D7E91C23FEF705
:1013A4002FFF02460B461346C7F8B430414B5B6827
:1013B4001B0C03F0030301335B00C7F8A830D7F814
:1013C400B420D7F8A830B2FBF3F3C7F8B030EBE0A1
:1013D400384B5B6803F03F03C7F8AC30354B5B68B0
:1013E40003F48003002B6BD0324B5B689B09002213
:1013F400BB66FA66BB6EC3F308033B6600237B66D9
:10140400D7E9184522462B464FF000004FF0000163
:10141400590141EAD261500102460B462146511A54
:10142400B961294663EB0103FB614FF000024FF001
:101434000003D7E906AB59468B01514643EA916351
:1014440051468A015146B2EB0108594663EB010942
:101454004FF000024FF000034FEAC90343EA587308
:101464004FEAC80290469946234618EB03033B61B2
:101474002B4649EB03037B614FF000024FF000035E
:10148400D7E9044529464B02214643EAD153214674
:101494004A0210461946D7F8AC300022BB65FA65FB
:1014A400D7E91623FEF7ACFE02460B461346C7F8EF
:1014B400B43065E0003802400024F40000127A00E1
:1014C4003D4B5B689B09002218461146C0F3080394
:1014D4003B6500237B65D7E9148942464B464FF0B0
:1014E40000004FF00001590141EAD2615001024667
:1014F4000B464146511AB960494663EB0103FB6050
:101504004FF000024FF00003D7E902AB59468B01BC
:10151400514643EA916351468A015146541A594649
:1015240063EB01054FF000024FF00003EB0043EAC8
:101534005473E20014461D464346E3183B604B4691
:1015440045EB03037B604FF000024FF00003D7E943
:10155400004529468B02214643EA915321468A02DB
:1015640010461946D7F8AC300022BB64FA64D7E9B8
:101574001223FEF745FE02460B461346C7F8B43065
:101584000D4B5B681B0F03F00703C7F8A430D7F8B3
:10159400B420D7F8A430B2FBF3F3C7F8B03003E0BB
:1015A400064BC7F8B03000BFD7F8B0301846B8378C
:1015B400BD46BDE8B08F00BF003802400024F400EF
:1015C40080B586B000AF78607B68002B01D1012321
:1015D4008DE27B681B6803F00103002B00F083801D
:1015E400944B9B6803F00C03042B19D0914B9B681C
:1015F40003F00C03082B06D18E4B5B6803F48003C5
:10160400B3F5800F0CD08B4B9B6803F00C030C2BB1
:1016140012D1884B5B6803F48003B3F5800F0BD1C0
:10162400844B1B6803F40033002B5BD07B685B683E
:10163400002B57D101235AE27B685B68B3F5803FE6
:1016440006D17C4B1B687B4A43F4803313601DE056
:101654007B685B68B3F5A02F0CD1764B1B68754A89
:1016640043F480231360734B1B68724A43F4803342
:1016740013600BE06F4B1B686E4A23F480331360D6
:101684006C4B1B686B4A23F4802313607B685B6894
:10169400002B13D0FFF798F9386108E0FFF794F9AD
:1016A40002463B69D31A642B01D903231FE2614B21
:1016B4001B6803F40033002BF0D014E0FFF784F927
:1016C400386108E0FFF780F902463B69D31A642BBE
:1016D40001D903230BE2574B1B6803F40033002B9F
:1016E400F0D100E000BF7B681B6803F00203002B0D
:1016F4006FD0504B9B6803F00C03002B17D04D4B5D
:101704009B6803F00C03082B05D14A4B5B6803F478
:101714008003002B0BD0474B9B6803F00C030C2B6E
:101724001CD1444B5B6803F48003002B16D1414B5E
:101734001B6803F00203002B05D07B68DB68012BD8
:1017440001D00123D3E13B4B1B6823F0F8027B68F3
:101754001B69DB00374913430B603AE07B68DB68A5
:10176400002B20D0344B01221A60FFF72DF9386189
:1017740008E0FFF729F902463B69D31A022B01D985
:101784000323B4E12B4B1B6803F00203002BF0D0BE
:10179400284B1B6823F0F8027B681B69DB00254992
:1017A40013430B6015E0244B00221A60FFF70CF979
:1017B400386108E0FFF708F902463B69D31A022BA7
:1017C40001D9032393E11B4B1B6803F00203002B95
:1017D400F0D17B681B6803F00803002B36D07B68CC
:1017E4005B69002B16D0154B01221A60FFF7ECF849
:1017F400386108E0FFF7E8F802463B69D31A022B88
:1018040001D9032373E10B4B5B6F03F00203002B3D
:10181400F0D01BE0094B00221A60FFF7D5F83861BD
:101824000EE0FFF7D1F802463B69D31A022B07D921
:1018340003235CE10038024000004742800E474227
:101844008A4B5B6F03F00203002BEAD17B681B68B1
:1018540003F00403002B00F097800023FB75834BF7
:101864001B6C03F08053002B0FD10023BB607F4B14
:101874001B6C7E4A43F0805313647C4B1B6C03F057
:101884008053BB60BB680123FB75794B1B6803F471
:101894008073002B18D1764B1B68754A43F4807310
:1018A4001360FFF791F8386108E0FFF78DF80246FE
:1018B4003B69D31A022B01D9032318E16C4B1B6833
:1018C40003F48073002BF0D07B689B68012B06D156
:1018D400664B1B6F654A43F0010313671CE07B688A
:1018E4009B68052B0CD1614B1B6F604A43F00403CA
:1018F40013675E4B1B6F5D4A43F0010313670BE0F4
:101904005A4B1B6F594A23F001031367574B1B6F44
:10191400564A23F0040313677B689B68002B15D099
:10192400FFF752F838610AE0FFF74EF802463B69C8
:10193400D31A41F28832934201D90323D7E04B4BA7
:101944001B6F03F00203002BEED014E0FFF73CF80A
:1019540038610AE0FFF738F802463B69D31A41F2CE
:101964008832934201D90323C1E0404B1B6F03F03B
:101974000203002BEED1FB7D012B05D13B4B1B6CED
:101984003A4A23F0805313647B689B69002B00F070
:10199400AD80364B9B6803F00C03082B60D07B684A
:1019A4009B69022B45D1334B00221A60FFF70CF8D8
:1019B400386108E0FFF708F802463B69D31A022BA6
:1019C40001D9032393E0294B1B6803F00073002B18
:1019D400F0D17B68DA697B681B6A1A437B685B6AAF
:1019E4009B011A437B689B6A5B08013B1B041A43F7
:1019F4007B68DB6A1B061A437B681B6B1B071B494E
:101A040013434B601B4B01221A60FEF7DDFF386164
:101A140008E0FEF7D9FF02463B69D31A022B01D92D
:101A2400032364E0114B1B6803F00073002BF0D018
:101A34005CE0104B00221A60FEF7C6FF386108E034
:101A4400FEF7C2FF02463B69D31A022B01D90323D6
:101A54004DE0064B1B6803F00073002BF0D145E00A
:101A64007B689B69012B07D1012340E000380240C9
:101A740000700040600047421F4B5B68FB607B685E
:101A84009B69012B30D0FB6803F480027B68DB691F
:101A94009A4229D1FB6803F03F027B681B6A9A4291
:101AA40022D1FA6847F6C07313407A68526A9201E9
:101AB400934219D1FB6803F440327B689B6A5B084C
:101AC400013B1B049A420FD1FB6803F070627B68F0
:101AD400DB6A1B069A4207D1FB6803F0E0427B688D
:101AE4001B6B1B079A4201D0012300E00023184618
:101AF4001837BD4680BD00BF0038024080B582B0B3
:101B040000AF78607B68002B01D1012341E07B6842
:101B140093F83D30DBB2002B06D17B68002283F8BA
:101B24003C207868FEF74EFE7B68022283F83D2055
:101B34007B681A687B6804331946104600F07EFA05
:101B44007B68012283F846207B68012283F83E20CB
:101B54007B68012283F83F207B68012283F84020C0
:101B64007B68012283F841207B68012283F84220AC
:101B74007B68012283F843207B68012283F8442098
:101B84007B68012283F845207B68012283F83D208D
:101B9400002318460837BD4680BD000080B485B0D8
:101BA40000AF78607B6893F83D30DBB2012B01D045
:101BB40001234EE07B68022283F83D207B681B688A
:101BC400DA687B681B6842F00102DA607B681B6894
:101BD400234A934222D07B681B68B3F1804F1DD007
:101BE4007B681B681F4A934218D07B681B681E4A97
:101BF400934213D07B681B681C4A93420ED07B68C7
:101C04001B681B4A934209D07B681B68194A93429C
:101C140004D07B681B68184A934211D17B681B6807
:101C24009B6803F00703FB60FB68062B10D07B68FE
:101C34001B681A687B681B6842F001021A6007E09F
:101C44007B681B681A687B681B6842F001021A6093
:101C5400002318461437BD465DF8047B704700BF67
:101C6400000001400004004000080040000C004057
:101C740000040140004001400018004080B584B0D9
:101C840000AF78607B681B68DB68FB607B681B685F
:101C94001B69BB60BB6803F00203002B20D0FB6808
:101CA40003F00203002B1BD07B681B686FF0020259
:101CB4001A617B6801221A777B681B689B6903F0B1
:101CC4000303002B03D0786800F099F905E07868E5
:101CD40000F08BF9786800F09CF97B6800221A7791
:101CE400BB6803F00403002B20D0FB6803F004035B
:101CF400002B1BD07B681B686FF004021A617B68A1
:101D040002221A777B681B689B6903F44073002BDB
:101D140003D0786800F073F905E0786800F065F99D
:101D2400786800F076F97B6800221A77BB6803F0C4
:101D34000803002B20D0FB6803F00803002B1BD002
:101D44007B681B686FF008021A617B6804221A77AB
:101D54007B681B68DB6903F00303002B03D07868FE
:101D640000F04DF905E0786800F03FF9786800F07C
:101D740050F97B6800221A77BB6803F01003002B2C
:101D840020D0FB6803F01003002B1BD07B681B687A
:101D94006FF010021A617B6808221A777B681B684F
:101DA400DB6903F44073002B03D0786800F027F953
:101DB40005E0786800F019F9786800F02AF97B6882
:101DC40000221A77BB6803F00103002B0CD0FB68D8
:101DD40003F00103002B07D07B681B686FF001023E
:101DE4001A617868FEF7A2FBBB6803F08003002B3E
:101DF4000CD0FB6803F08003002B07D07B681B68C2
:101E04006FF080021A61786800F0DEFABB6803F0B4
:101E14004003002B0CD0FB6803F04003002B07D0D9
:101E24007B681B686FF040021A61786800F0FBF869
:101E3400BB6803F02003002B0CD0FB6803F02003E5
:101E4400002B07D07B681B686FF020021A6178684A
:101E540000F0B0FA00BF1037BD4680BD80B584B035
:101E640000AF786039600023FB737B6893F83C30E3
:101E7400012B01D10223B4E07B68012283F83C20CA
:101E84007B68022283F83D207B681B689B68BB60EB
:101E9400BB6823F07703BB60BB6823F47F43BB605C
:101EA4007B681B68BA689A603B681B68B3F5005F7F
:101EB4003ED0B3F5005F00F28780B3F5805F00F099
:101EC4008680B3F5805F7FD8702B1AD0702B7BD8B7
:101ED400602B50D0602B77D8502B3CD0502B73D82C
:101EE400402B58D0402B6FD8302B64D0302B6BD87C
:101EF400202B60D0202B67D8002B5CD0102B5AD01D
:101F040062E07B6818683B6899683B685A683B687C
:101F1400DB6800F0B3F97B681B689B68BB60BB6837
:101F240043F07703BB607B681B68BA689A604FE034
:101F34007B6818683B6899683B685A683B68DB684B
:101F440000F09CF97B681B689A687B681B6842F404
:101F540080429A603CE07B6818683B6859683B683B
:101F6400DB681A4600F010F97B681B68502118469C
:101F740000F069F92CE07B6818683B6859683B6895
:101F8400DB681A4600F02FF97B681B68602118464D
:101F940000F059F91CE07B6818683B6859683B6895
:101FA400DB681A4600F0F0F87B681B68402118468D
:101FB40000F049F90CE07B681A683B681B68194615
:101FC400104600F040F903E00123FB7300E000BF7A
:101FD4007B68012283F83D207B68002283F83C2043
:101FE400FB7B18461037BD4680BD80B483B000AF7C
:101FF400786000BF0C37BD465DF8047B704780B441
:1020040083B000AF786000BF0C37BD465DF8047B39
:10201400704780B483B000AF786000BF0C37BD4612
:102024005DF8047B704780B483B000AF786000BF74
:102034000C37BD465DF8047B7047000080B485B062
:1020440000AF786039607B681B68FB607B68434A3B
:10205400934213D07B68B3F1804F0FD07B68404A22
:1020640093420BD07B683F4A934207D07B683E4A39
:10207400934203D07B683D4A934208D1FB6823F026
:102084007003FB603B685B68FA681343FB607B6822
:10209400324A93422BD07B68B3F1804F27D07B68C0
:1020A4002F4A934223D07B682E4A93421FD07B68E9
:1020B4002D4A93421BD07B682C4A934217D07B68ED
:1020C4002B4A934213D07B682A4A93420FD07B68F1
:1020D400294A93420BD07B68284A934207D07B68F5
:1020E400274A934203D07B68264A934208D1FB686F
:1020F40023F44073FB603B68DB68FA681343FB60BE
:10210400FB6823F080023B685B691343FB603B6818
:102114009A687B68DA623B681A687B689A627B68B3
:102124000E4A934203D07B68104A934203D13B6822
:102134001A697B681A637B681B6843F004027B6836
:102144001A607B6801225A617B68FA681A6000BFD2
:102154001437BD465DF8047B704700BF00000140A2
:102164000004004000080040000C0040000401404E
:102174000040014000440140004801400018004074
:10218400001C00400020004080B487B000AFF8601D
:10219400B9607A60FB681B6A7B61FB681B6A23F089
:1021A4000102FB681A62FB689B693B613B6923F08F
:1021B400F0033B617B681B013A6913433B617B6914
:1021C40023F00A037B617A69BB6813437B61FB6874
:1021D4003A699A61FB687A691A6200BF1C37BD4686
:1021E4005DF8047B704780B487B000AFF860B960D5
:1021F4007A60FB681B6A7B61FB681B6A23F0100230
:10220400FB681A62FB689B693B613B6923F470437A
:102214003B617B681B033A6913433B617B6923F091
:10222400A0037B61BB681B017A6913437B61FB6874
:102234003A699A61FB687A691A6200BF1C37BD4625
:102244005DF8047B704780B485B000AF7860396076
:102254007B689B68FB60FB6823F07003FB603A6853
:10226400FB68134343F00703FB607B68FA689A60DA
:1022740000BF1437BD465DF8047B704780B487B057
:1022840000AFF860B9607A603B60FB689B687B6173
:102294007B6923F47F437B613B681A027B681A43A2
:1022A400BB6813437A6913437B61FB687A699A605C
:1022B40000BF1C37BD465DF8047B704780B485B011
:1022C40000AF786039607B6893F83C30012B01D112
:1022D40002235AE07B68012283F83C207B680222B7
:1022E40083F83D207B681B685B68FB607B681B6828
:1022F4009B68BB60FB6823F07003FB603B681B6852
:10230400FA681343FB607B681B68FA685A607B6851
:102314001B68214A934222D07B681B68B3F1804F2B
:102324001DD07B681B681D4A934218D07B681B68CC
:102334001B4A934213D07B681B681A4A93420ED0FF
:102344007B681B68184A934209D07B681B68174A4C
:10235400934204D07B681B68154A93420CD1BB6836
:1023640023F08003BB603B685B68BA681343BB60BF
:102374007B681B68BA689A607B68012283F83D20F9
:102384007B68002283F83C20002318461437BD469E
:102394005DF8047B704700BF00000140000400406A
:1023A40000080040000C00400004014000400140CF
:1023B4000018004080B483B000AF786000BF0C37D1
:1023C400BD465DF8047B704780B483B000AF78608D
:1023D40000BF0C37BD465DF8047B704702440346DA
:1023E400934200D1704703F8011BF9E770B50D4D16
:1023F4000D4C641BA4100026A64209D10B4D0C4CB5
:1024040000F018F8641BA4100026A64205D170BD84
:1024140055F8043B98470136EEE755F8043B9847D6
:102424000136F2E7682400086824000868240008DC
:102434006C240008F8B500BFF8BC08BC9E46704781
:0C244400F8B500BFF8BC08BC9E4670470D
:102450000000000000000000010203040607080954
:08246000D4DDFF7F0100000044
:04246800E90100087E
:04246C00C50100089E
:0C2470000024F400100000000100000037
:04000005080008AD3A
:00000001FF
